:020000040800F2
:10000000680B00204D6D0008E1520008E352000823
:10001000E7520008EB520008EF5200080000000011
:10002000000000000000000000000000F352000883
:10003000F552000800000000F7520008F9520008CD
:10004000676D0008676D0008676D0008676D000840
:10005000676D0008676D0008676D0008676D000830
:10006000676D0008676D0008676D0008676D000820
:10007000676D0008676D0008676D0008676D000810
:10008000676D0008676D0008676D0008676D000800
:10009000676D0008676D0008676D00084568000817
:1000A000676D0008676D0008676D0008676D0008E0
:1000B000AF660008A363000881590008676D000857
:1000C000676D0008676D0008676D0008676D0008C0
:1000D000676D0008CB6B0008676D0008676D00084E
:1000E000676D0008676D0008676D0008DFF80CD0C9
:1000F00009F0E2FD004800470D4F0008680B0020A2
:1001000001B502E00098401E009000980028F9D147
:1001100008BD0FB430B59BB000241FA80190652125
:1001200002A8019B1E9A09F077FEC5B20EE0204698
:10013000621CD4B202AA115CF74807F0D7FA00BFDC
:100140004021F54807F040FB0028F9D0642C03DA81
:10015000AC4201DA002DEADC002001901BB030BC7B
:100160005DF814FB70B504460D46ECA1002009F0C3
:100170005BFB05E02278EDA1002009F055FB641C33
:10018000281EA5F10101CDB2F4D1EAA109F04CFB82
:1001900070BD10B504462146DF4807F0A7FA00BF3E
:1001A0008021DD4807F010FB0028F9D010BD70B5A4
:1001B00004460D460BE02178D74807F097FA00BFB8
:1001C0004021D54807F000FB0028F9D0641C281E08
:1001D000A5F10101CDB2EED170BD10B504460BE022
:1001E0002178CD4807F082FA00BF4021CA4807F0C5
:1001F000EBFA0028F9D0641C20780028F0D110BD5B
:1002000070B504460D462178C34807F06FFA70BDFB
:1002100010B504462146C8A009F0EEFD10BD10B58A
:1002200002460B460020002103E0545C60404C1C59
:10023000A1B29942F9DB10BD0020C3490860C3494F
:10024000C1F88C01C2490860C14908310860C04941
:1002500010310860BE4918310860BB491031086090
:10026000BC490860BC490860BB490C390860BA4900
:100270000C310860B84914310860B7491C31086076
:10028000B54924310860B34924310860B1492C31A3
:100290000860B04934310860B0490860AF4908319E
:1002A0000860AE4910310860AC4918310860A649B1
:1002B00014310860A4491C310860A949C1F8A001A3
:1002C000704710B50120A0490860642006F02DFB9E
:1002D0000121A44806F03FFE012803D14FF4967097
:1002E00006F023FB01219F4806F035FE012803D1CB
:1002F0004FF4167006F019FB0020934908604FF484
:10030000FA7006F012FB01209049C1F88C016420BC
:1003100006F00BFB0421934806F01DFE012803D1D3
:100320004FF4967006F001FB04218E4806F013FE90
:10033000012803D14FF4167006F0F7FA0020824925
:10034000083108604FF4FA7006F0EFFA8648D0F8EA
:10035000940108B9012000E000207E4910310860B6
:1003600001207F49C1F88401642006F0DEFA0121F2
:100370007E4806F0F0FD012803D14FF4967006F098
:10038000D4FA0121794806F0E6FD012803D14FF4A3
:10039000167006F0CAFA00206D4908604FF4FA7032
:1003A00006F0C3FA7048D0F8940108B9012000E0C3
:1003B000002068491031086001206949C1F88C01AA
:1003C000642006F0B2FA0421684806F0C4FD012852
:1003D00003D14FF4967006F0A8FA0421634806F0A2
:1003E000BAFD012803D14FF4167006F09EFA0020E2
:1003F0005749083108604FF4FA7006F096FA5A48E7
:10040000D0F8940108B9012000E0002051491031D2
:10041000086001205249C1F89401642006F085FA71
:100420001021524806F097FD012803D14FF4967031
:1004300006F07BFA10214D4806F08DFD012803D10E
:100440004FF4167006F071FA00204149103108602F
:100450004FF4FA7006F069FA4348D0F8940108B9ED
:10046000012000E000203B491031086001203C4998
:10047000C1F89C01642006F058FA40213B4806F080
:100480006AFD012803D14FF4967006F04EFA402120
:10049000364806F060FD012803D14FF4167006F0CF
:1004A00044FA00202A49183108604FF4FA7006F027
:1004B0003CFA2D48D0F8940108B9012000E0002052
:1004C00024491031086001202049C1F894016420BA
:1004D00006F02BFA1021234806F03DFD012803D138
:1004E0004FF4967006F021FA10211E4806F033FDF5
:1004F000012803D14FF4167006F017FA00201249B4
:10050000103108604FF4FA7006F00FFA1648D0F870
:10051000940168BB01202DE0003801407274742DF5
:1005200074656D703D3D3D3D3D00000025303278E5
:10053000200000000A000000726563765F64617449
:10054000613D25780D0A000084012242000022420C
:10055000840121428481214294012342A0812242CC
:1005600000002142001001400080214200080140AB
:10057000FFE70020F74908600120F749C1F884012E
:10058000642006F0D2F90121F44806F0E4FC0128C9
:1005900003D14FF4967006F0C8F90121EF4806F038
:1005A000DAFC012803D14FF4167006F0BEF90020E2
:1005B000E849103908604FF4FA7006F0B6F9E648D9
:1005C000D0F8940108B9012000E00020E14908605A
:1005D0000120E349C1F89401642006F0A6F908213E
:1005E000E04806F0B8FC012803D14FF4967006F0FD
:1005F0009CF90821DB4806F0AEFC012803D14FF43A
:10060000167006F092F90020D74908604FF4FA708E
:1006100006F08BF9D048D0F8940108B9012000E029
:100620000020CC4908600120CD49C1F88801642030
:1006300006F07BF91021CB4806F08DFC012803D190
:100640004FF4967006F071F91021C64806F083FC4D
:10065000012803D14FF4167006F067F90020C24953
:100660000C3908604FF4FA7006F05FF9BA48D0F818
:10067000940108B9012000E00020B649086001207B
:10068000B749C1F8A001642006F04FF98021B548B0
:1006900006F061FC012803D14FF4967006F045F98D
:1006A0008021B04806F057FC012803D14FF41670A2
:1006B00006F03BF90020AC490C3108604FF4FA70A9
:1006C00006F033F9A448D0F8940108B9012000E0FD
:1006D0000020A04908600120A149C1F8A8016420B8
:1006E00006F023F94FF400719E4806F034FC01280F
:1006F00003D14FF4967006F018F94FF40071994841
:1007000006F029FC012803D14FF4167006F00DF90C
:1007100000209549143108604FF4FA7006F005F98D
:100720008D48D0F8940108B9012000E000208949E3
:10073000086001208A49C1F8B001642006F0F5F88C
:100740004FF40061874806F006FC012803D14FF4FE
:10075000967006F0EAF84FF40061824806F0FBFB61
:10076000012803D14FF4167006F0DFF800207E490F
:100770001C3108604FF4FA7006F0D7F87648D0F8CC
:10078000940108B9012000E00020724908600120AE
:100790007349C1F8B801642006F0C7F84FF400515E
:1007A000704806F0D8FB012803D14FF4967006F08C
:1007B000BCF84FF400516B4806F0CDFB012803D183
:1007C0004FF4167006F0B1F8002067492431086034
:1007D0004FF4FA7006F0A9F85F48D0F8940108B910
:1007E000012000E000205B49086001205A49C1F85F
:1007F000A801642006F099F84FF40041594806F02A
:10080000AAFB012803D14FF4967006F08EF84FF43E
:100810000041544806F09FFB012803D14FF41670A5
:1008200006F083F800204B49143108604FF4FA7049
:1008300006F07BF84848D0F8940108B9012000E0A0
:1008400000204449086001204349C1F8B0016420F8
:1008500006F06BF84FF40061404806F07CFB01287D
:1008600003D14FF4967006F060F84FF400613B48F6
:1008700006F071FB012803D14FF4167006F055F80D
:10088000002034491C3108604FF4FA7006F04DF82E
:100890003148D0F8940108B9012000E000202D492A
:1008A000086001202C49C1F8B801642006F03DF829
:1008B0004FF40051294806F04EFB012803D14FF4B4
:1008C000967006F032F84FF40051244806F043FBCE
:1008D000012803D14FF4167006F027F800201D49B7
:1008E000243108604FF4FA7006F01FF81A48D0F867
:1008F000940108B9012000E0002016490860012099
:100900001A49C1F8A001642006F00FF84FF4004125
:10091000124806F020FB012803D14FF4967006F030
:1009200004F84FF400410D4806F015FB012803D1EF
:100930004FF4167005F0F9FF00200D4908604FF4E0
:10094000FA7005F0F2FF0448D0F8940190B9012044
:1009500011E000009481214200802142000C0140FE
:1009600000002342001801409401234200802242EB
:10097000A08122420020FE4908600120FD49C1F803
:10098000A801642005F0D1FF4FF40071FA4806F089
:10099000E2FA012803D14FF4967005F0C6FF4FF438
:1009A0000071F54806F0D7FA012803D14FF416700C
:1009B00005F0BBFF0020F14908604FF4FA7005F024
:1009C000B4FFEF48D0F8940108B9012000E00020FE
:1009D000E74908600120E749C1F8B001642005F04B
:1009E000A4FF4FF40061E44806F0B5FA012803D1F2
:1009F0004FF4967005F099FF4FF40061DE4806F061
:100A0000AAFA012803D14FF4167005F08EFF0020DA
:100A1000DA49083108604FF4FA7005F086FFD848CB
:100A2000D0F8940108B9012000E00020D049086006
:100A30000120D049C1F8B801642005F076FF4FF4D9
:100A40000051CD4806F087FA012803D14FF4967083
:100A500005F06BFF4FF40051C74806F07CFA0128FF
:100A600003D14FF4167005F060FF0020C349103128
:100A700008604FF4FA7005F058FFC148D0F89401AF
:100A800008B9012000E00020B94908600120BD49F3
:100A9000C1F89801642005F048FF4FF40041B648C2
:100AA00006F059FA012803D14FF4967005F03DFF86
:100AB0004FF40041B04806F04EFA012803D14FF43C
:100AC000167005F032FF0020AF4908604FF4FA704D
:100AD00005F02BFFAA48D0F8940108B9012000E0E6
:100AE0000020A34908600120A649C1F8A0016420A4
:100AF00005F01BFF8021A54806F02DFA012803D13F
:100B00004FF4967005F011FF8021A04806F023FAFB
:100B1000012803D14FF4167005F007FF00209A4911
:100B2000083108604FF4FA7005F0FFFE9448D0F8E1
:100B3000940108B9012000E000208D4908600120DF
:100B40009349C1F8A001642005F0EFFE4FF4007155
:100B50008E4806F000FA012803D14FF4967005F094
:100B6000E4FE4FF40071894806F0F5F9012803D13D
:100B70004FF4167005F0D9FE002086490860FFF793
:100B80005BFB10BD2DE9F04FADF5017D4FF4807199
:100B900041A808F076FE4FF4807101A808F071FEBC
:100BA0004FF000097C4802787CA1002008F03CFE50
:100BB00079480078083800F0FF094A467DA10020F6
:100BC00008F032FE4A46804901A808F041FE4FF481
:100BD00080616E4806F0BFF983464FF400616B48B0
:100BE00006F0B9F94BEA400B4FF48051674806F024
:100BF000B2F94BEA800B01215F4806F0ACF94BEAF1
:100C0000C00B10215C4806F0A6F94BEA001B082136
:100C1000594806F0A0F94BEA401B0421564806F05B
:100C20009AF94BEA801B0221534806F094F94BEAEB
:100C3000C01000F0FF0A9DF80500504541F06C819E
:100C4000B9F1050F7ED19DF80400604908709DF848
:100C5000050048709DF8060088709DF80700C87070
:100C60009DF808000871042101A8FFF7D8FA05468D
:100C70002A4657A1002008F0D7FD54480079A84221
:100C800070D15248007880286DD08A286CD14F48A6
:100C9000C078112869D14D488078192866D2DFE8DC
:100CA00000F0650D41C1F9F7F6F5F4F3F2F1F0EF5C
:100CB000EEEDECEBEAE9E8E7E6E5E4000120324995
:100CC00014390860642005F030FE01212F4806F039
:100CD00042F9012807D142A1002008F0A5FD4FF4F8
:100CE000967005F022FE0121284806F034F901280B
:100CF00007D13FA1002008F097FD4FF4167005F0D2
:100D000014FE002020491439086001211F4806F014
:100D100022F904462D488278234639A1002008F0A4
:100D200083FDE9E3012018490C390860642005F0CF
:100D3000FCFD0421154806F00EF9012805D14FF4F9
:100D4000967000E0F7E305F0F0FD04210F4806F08F
:100D500002F9012803D14FF4167005F0E6FD0020DA
:100D6000094957E0E8E3E8E3E8E3E8E3C3E3000028
:100D7000948121420080224200140140A881224235
:100D800000802142000022429801224200100140CE
:100D900000002142A0012142940000202D706172C8
:100DA00073652D55617274315F5278203D20256442
:100DB0000A0000002D55617274315F52785F542033
:100DC0003D2025640A000000B4010020000000203E
:100DD0006263635F74656D70203D2025780A0000B2
:100DE0002D2D2D2D313131312D2D2D2D2D0A0000A0
:100DF0002D2D2D2D323232322D2D2D2D2D0A00008C
:100E000025643A6770696F5F6C6576656C203D207C
:100E100025780A000C3908600421FE4806F09BF88A
:100E2000044669E30120FC490860642005F07DFD6B
:100E30000121FA4806F08FF8012803D14FF496708B
:100E400005F073FD0121F54806F085F8012803D16E
:100E50004FF4167005F069FD0020EF49086001218C
:100E6000EE4806F078F8044646E31EE3F8E2D1E2E5
:100E7000A8E27FE256E22FE206E2DFE1A4E17BE1B5
:100E800052E129E103E1DDE0B9E095E071E04BE0FA
:100E900025E0FFE70120E04908310860642005F003
:100EA00044FD0421DD4806F056F8012803D14FF433
:100EB000967005F03AFD0421D84806F04CF8012858
:100EC00003D14FF4167005F030FD0020D2490831EF
:100ED00008600421D14806F03EF804460CE30120E6
:100EE000CD4910310860642005F01FFD1021CB486A
:100EF00006F031F8012803D14FF4967005F015FD86
:100F00001021C64806F027F8012803D14FF41670C7
:100F100005F00BFD0020C049103108601021BF48CA
:100F200006F019F80446E7E20120BB4918310860D1
:100F3000642005F0FAFC4021B84806F00CF80128BE
:100F400003D14FF4967005F0F0FC4021B34806F051
:100F500002F8012803D14FF4167005F0E6FC0020DA
:100F6000AD49183108604021AC4805F0F4FF044653
:100F7000C2E20120AA490860642005F0D6FC1021D5
:100F8000A44805F0E8FF012803D14FF4967005F05E
:100F9000CCFC10219F4805F0DEFF012803D14FF45F
:100FA000167005F0C2FC00209D4908601021994888
:100FB00005F0D1FF04469FE201209A4908606420B1
:100FC00005F0B3FC0121984805F0C5FF012803D1C5
:100FD0004FF4967005F0A9FC0121934805F0BBFF82
:100FE000012803D14FF4167005F09FFC00208D49B5
:100FF00008600421874805F0AEFF04467CE201202A
:101000008A490860642005F090FC0821884805F0B2
:10101000A2FF012803D14FF4967005F086FC082149
:10102000834805F098FF012803D14FF4167005F0AE
:101030007CFC00207D49086008217D4805F08BFF7D
:10104000044659E2012079490C390860642005F012
:101050006CFC1021764805F07EFF012803D14FF487
:10106000967005F062FC1021714805F074FF0128AC
:1010700003D14FF4167005F058FC00206B490C3971
:10108000086010216A4805F066FF044634E201203A
:1010900066490C310860642005F047FC80216448F3
:1010A00005F059FF012803D14FF4967005F03DFC7F
:1010B00080215F4805F04FFF012803D14FF41670DF
:1010C00005F033FC002059490C3108608021584854
:1010D00005F041FF04460FE2012054491431086035
:1010E000642005F022FC4FF40071514805F033FFF5
:1010F000012803D14FF4967005F017FC4FF40071EE
:101100004B4805F028FF012803D14FF4167005F075
:101110000CFC00204549143108604FF4007144482C
:1011200005F019FF0446E7E1012040491C31086041
:10113000642005F0FAFB4FF400613D4805F00BFF19
:10114000012803D14FF4967005F0EFFB4FF40061D6
:10115000374805F000FF012803D14FF4167005F061
:10116000E4FB002031491C3108604FF40061304835
:1011700005F0F1FE0446BFE101202C49243108604E
:10118000642005F0D2FB4FF40051294805F0E3FE3E
:10119000012803D14FF4967005F0C7FB4FF40051BE
:1011A000234805F0D8FE012803D14FF4167005F04E
:1011B000BCFB00201D49243108604FF400511C483D
:1011C00005F0C9FE044697E1012016492431086064
:1011D000642005F0AAFB4FF40041154805F0BBFE62
:1011E000012803D14FF4967005F09FFB4FF40041A6
:1011F0000F4805F0B0FE012803D14FF4167005F03A
:1012000094FB00200749243108604FF4004108484E
:1012100010E000000010014084012142000801405C
:101220009401224284812142000C01409401234216
:101230000018014005F08FFE04465DE10120FE49E3
:101240000860642005F071FB4FF40061FB4805F075
:1012500082FE012803D14FF4967005F066FB4FF42F
:101260000061F64805F077FE012803D14FF41670AF
:1012700005F05BFB0020F04908604FF40061EF4887
:1012800005F069FE044637E10120EB4908310860AA
:10129000642005F04AFB4FF40051E84805F05BFE7E
:1012A000012803D14FF4967005F03FFB4FF4005135
:1012B000E24805F050FE012803D14FF4167005F006
:1012C00034FB0020DC49083108604FF40051DB4852
:1012D00005F041FE04460FE10120D9490860642071
:1012E00005F023FB4FF40041D44805F034FE0128FB
:1012F00003D14FF4967005F018FB4FF40041CF482E
:1013000005F029FE012803D14FF4167005F00DFBFE
:101310000020CB4908604FF40041C84805F01BFE8F
:101320000446E9E00120C64908310860642005F060
:10133000FCFA4FF40071C34805F00DFE012803D1FB
:101340004FF4967005F0F1FA4FF40071BD4805F0C6
:1013500002FE012803D14FF4167005F0E6FA0020D2
:10136000B749083108604FF40071B64805F0F3FD45
:101370000446C1E00120B24910310860642005F044
:10138000D4FA4FF40061AF4805F0E5FD012803D120
:101390004FF4967005F0C9FA4FF40061A94805F0C2
:1013A000DAFD012803D14FF4167005F0BEFA0020D3
:1013B000A349103108604FF40061A24805F0CBFD4D
:1013C000044699E001209E4918310860642005F028
:1013D000ACFA4FF400519B4805F0BDFD012803D144
:1013E0004FF4967005F0A1FA4FF40051954805F0BE
:1013F000B2FD012803D14FF4167005F096FA0020D3
:101400008F49183108604FF400518E4805F0A3FD54
:10141000044671E001208C490860642005F085FADB
:101420004FF40041874805F096FD012803D14FF4A1
:10143000967005F07AFA4FF40041824805F08BFD72
:10144000012803D14FF4167005F06FFA00207E4991
:1014500008604FF400417B4805F07DFD04464BE0F9
:101460000120794908310860642005F05EFA802186
:10147000764805F070FD012803D14FF4967005F011
:1014800054FA8021714805F066FD012803D14FF41C
:10149000167005F04AFA00206B4908310860802177
:1014A0006A4805F058FD044626E0012068490860B6
:1014B000642005F03AFA4FF40071644805F04BFDE2
:1014C000012803D14FF4967005F02FFA4FF4007104
:1014D0005E4805F040FD012803D14FF4167005F079
:1014E00024FA00205A4908604FF40071574805F06B
:1014F00032FD044600E000BF00BFFEF79DFE5548E8
:101500008278234654A1002008F08EF959A0006883
:101510004190504800788DF808014E4840788DF889
:1015200009014C4880788DF80A01012C08D111205E
:101530008DF80B0107E066E25EE22BE053E222E069
:1015400000208DF80B01042142A8FEF768FE054635
:101550008DF80C5149A00188ADF80D1180788DF8F7
:101560000F0100208DF810010C2141A8FEF71FFE8D
:101570000C2141A8FEF7F6FD3648027840A1002074
:1015800008F052F905E03348027843A1002008F042
:101590004BF929E22F48C07833284AD12D4880786A
:1015A000002847D10121294805F0D5FC83460421B4
:1015B000264805F0D0FC4BEA400B01213D4805F0E0
:1015C000CAFC4BEA800B04213A4805F0C4FC4BEA04
:1015D000C00B1021374805F0BEFC4BEA001B402130
:1015E000344805F0B8FC4BEA401B1021174805F0C1
:1015F000B2FC4BEA801B0121104805F0ACFC4BEA21
:10160000C010C6B208212C4805F0A5FC8346102165
:10161000294805F0A0FC4BEA400B8021264805F044
:101620009AFC4BEA800B4FF40071234805F093FCC1
:1016300044E0D0E1DCE00000B0812142000C014038
:10164000A081224200140140980122420010014072
:10165000A0012142000000206C6F636B203D20251B
:10166000643A6770696F5F6C6576656C203D202514
:10167000780A00007374617200000000656E6400F7
:101680006F6B2C6D5F646174612E6F70636F646546
:101690003D253032780A00006572726F722D322C4F
:1016A0006D5F646174612E6F70636F64653D25309A
:1016B00032780A0000080140001801404BEAC00BD4
:1016C0004FF40061FE4805F046FC4BEA001B4FF466
:1016D0000051FB4805F03FFC4BEA401B4FF4004132
:1016E000F74805F038FC4BEA801B4FF40061F548E1
:1016F00005F031FC4BEAC010C7B24FF40051F1487D
:1017000005F029FC83464FF40041EE4805F023FC28
:101710004BEA400B4FF40071EB4805F01CFC4BEA20
:10172000800B4FF40061E84805F015FC4BEAC00B54
:101730004FF40051E44805F00EFC4BEA001B4FF457
:101740000041E14805F007FC4BEA401B8021DF48DF
:1017500005F001FC4BEA801B4FF40071DB4805F0FB
:10176000FAFB4BEAC01000F0FF083246D8A1002077
:1017700008F05AF83A46DBA1002008F055F8424636
:10178000DDA1002008F050F8AFF218100068419079
:10179000DE4800788DF80801DC4840788DF80901B2
:1017A0008DF80A618DF80B718DF80C81052142A826
:1017B000FEF735FD05468DF80D51AFF2401001885A
:1017C000ADF80E1180788DF8100100208DF8100111
:1017D0000C2141A8FEF7EBFC0C2141A8FEF7C2FC4E
:1017E000CA480278AFF26811002008F01DF8F9E04D
:1017F000C6488078192873D2DFE800F0AA0D1319C3
:101800001F252B31373D43494F565D646B737A81F9
:10181000888F969DA3000121AC4805F09CFB0446EF
:1018200097E00421A94805F096FB044691E00121C8
:10183000B74805F090FB04468BE00421B44805F05E
:101840008AFB044685E01021B14805F084FB04467C
:101850007FE04021AE4805F07EFB044600BF10212A
:101860009A4805F078FB044673E00121954805F09D
:1018700072FB04466DE00821914805F06CFB0446BC
:1018800067E010218E4805F066FB044661E0802188
:101890008B4805F060FB04465BE04FF4007188481C
:1018A00005F059FB044654E04FF40061844805F00C
:1018B00052FB04464DE04FF40051814805F04BFBCC
:1018C000044646E04FF400417D4805F044FB0446E1
:1018D00000BF4FF400617B4805F03DFB044638E053
:1018E00036E04FF40051774805F035FB044630E010
:1018F0004FF40041734805F02EFB044629E04FF4F5
:101900000071714805F027FB044622E04FF40061A6
:101910006D4805F020FB04461BE04FF400516A4877
:1019200005F019FB044614E04FF40041664805F049
:1019300012FB04460DE08021644805F00CFB0446D0
:1019400007E04FF40071614805F005FB044600E034
:1019500000BF00BF6D48827823466EA1002007F0CB
:1019600063FFAFF2F02000684190684800788DF87E
:101970000801664840788DF80901644880788DF840
:101980000A01012C03D111208DF80B0102E0002087
:101990008DF80B01042142A8FEF741FC05468DF8A5
:1019A0000C51AFF228300188ADF80D1180788DF818
:1019B0000F0100208DF810010C2141A8FEF7F7FB64
:1019C0000C2141A8FEF7CEFB5048027857A1002019
:1019D00007F02AFF06E04D480278AFF244310020BC
:1019E00007F022FF00E000BF00BF4848027956A17F
:1019F000002007F019FF8FE24448027957A1002028
:101A000007F012FF88E2B9F1030FF4D19DF804004A
:101A10003E4908709DF8050048709DF80600087161
:101A2000022101A8FEF7FBFB05462A46AFF66041FE
:101A3000002007F0F9FE35480079A84239D1334833
:101A40000078912836D006DC702834D0712833D045
:101A5000902832D104E0922830D09328F9D132E294
:101A60002A480278AFF2E831002007F0DDFEFEF7E9
:101A700028FC0121154805F06EFA8346042113481D
:101A800005F069FA4BEA400B0121214805F063FAA1
:101A90004BEA800B04211E4805F05DFA4BEAC00BAF
:101AA00010211B4805F057FA4BEA001B402118484B
:101AB00062E02AE218E10EE215E21CE2FBE100001E
:101AC00000180140000C01400014014000100140CA
:101AD0006772705F6C6576656C5F31203D2025789C
:101AE0000A0000006772705F6C6576656C5F32207B
:101AF0003D2025780A0000006772705F6C6576658E
:101B00006C5F33203D2025780A0000000000002093
:101B1000000801402D2D25643A6770696F5F6C6580
:101B200076656C203D2025780A0000002D2D6F6B16
:101B30002C6D5F646174612E6F70636F64653D2509
:101B40003032780A000000006D5F646174612E62BB
:101B50006363203D2025780A000000006572726FE3
:101B6000722D312D6D5F646174612E626363203D5F
:101B70002025780A0000000005F0EDF94BEA401B33
:101B80001021FE4805F0E7F94BEA801B0121FC48D3
:101B900005F0E1F94BEAC010C6B20821F94805F09A
:101BA000DAF983461021F74805F0D5F94BEA400BE6
:101BB0008021F44805F0CFF94BEA800B4FF4007117
:101BC000F04805F0C8F94BEAC00B4FF40061ED484E
:101BD00005F0C1F94BEA001B4FF40051E94805F04C
:101BE000BAF94BEA401B4FF40041E64805F0B3F95F
:101BF0004BEA801B4FF40061E14805F0ACF94BEA79
:101C0000C010C7B24FF40051DD4805F0A4F9834677
:101C10004FF40041DA4805F09EF94BEA400B4FF4CF
:101C20000071D94805F097F94BEA800B4FF4006139
:101C3000D54805F090F94BEAC00B4FF40051D2485B
:101C400005F089F94BEA001B4FF40041CE4805F03E
:101C500082F94BEA401B8021C84805F07CF94BEA29
:101C6000801B4FF40071C54805F075F94BEAC010B0
:101C700000F0FF083246AFF2A811002007F0D4FDB3
:101C80003A46AFF2A011002007F0CEFD4246AFF277
:101C90009811002007F0C8FDAFF22860006841905D
:101CA00080208DF80801B94840788DF809018DF839
:101CB0000A618DF80B718DF80C81052142A8FEF7A1
:101CC000AEFA05468DF80D51AFF250600188ADF8BF
:101CD0000E1180788DF8100100208DF810010C2174
:101CE00041A8FEF764FA07E1A8480278AFF27061F4
:101CF000002007F099FDA5480278AFF27C61002032
:101D000007F092FDFEF7DDFA01219C4805F023F96A
:101D100083460421994805F01EF94BEA400B012146
:101D20009B4805F018F94BEA800B0421984805F010
:101D300012F94BEAC00B1021954805F00CF94BEA5B
:101D4000001B4021924805F006F94BEA401B102188
:101D50008A4805F000F94BEA801B0121884805F00C
:101D6000FAF84BEAC010C6B20821864805F0F3F82D
:101D700083461021834805F0EEF84BEA400B8021A2
:101D8000804805F0E8F84BEA800B4FF400717D487D
:101D900005F0E1F84BEAC00B4FF40061794805F01B
:101DA000DAF84BEA001B4FF40051764805F0D3F8FF
:101DB0004BEA401B4FF40041724805F0CCF84BEA67
:101DC000801B4FF400616E4805F0C5F84BEAC01067
:101DD000C7B24FF400516A4805F0BDF883464FF48E
:101DE0000041674805F0B7F84BEA400B4FF400712B
:101DF000654805F0B0F84BEA800B4FF4006162488B
:101E000005F0A9F84BEAC00B4FF400515E4805F00D
:101E1000A2F84BEA001B4FF400415B4805F09BF829
:101E20004BEA401B8021554805F095F84BEA801B92
:101E30004FF40071514805F08EF84BEAC01000F0E5
:101E4000FF083246AFF27831002007F0EDFC3A4649
:101E5000AFF27031002007F0E7FC4246AFF2683184
:101E6000002007F0E1FCAFF2F470006841908020A0
:101E70008DF80801454840788DF809018DF80A6110
:101E80008DF80B718DF80C81052142A8FEF7C7F97A
:101E900005468DF80D51AFF61C000188ADF80E1106
:101EA00080788DF8100100208DF810010C2141A8D8
:101EB000FEF77DF920E035480278AFF63C010020BE
:101EC00007F0B2FC18E031480278AFF64C01002070
:101ED00007F0AAFC10E02D480278AFF65C01002064
:101EE00007F0A2FC08E029480278AFF66C01002058
:101EF00007F09AFC00E000BF00BF24480279AFF26F
:101F0000B831002007F090FC06E020480279AFF2DB
:101F1000B431002007F088FC0DF5017DBDE8F08F9D
:101F2000012805D11B490968491C1A4A116006E0BD
:101F3000022804D118490968491C174A11607047E2
:101F400070B5C0B04FF48071684607F09AFC4FF44A
:101F500080610A4804F0FFFF06464FF4006107481D
:101F600004F0F9FF46EA40064FF48051034804F0BC
:101F7000F2FF46EA8006012103480FE0001001400D
:101F8000000C014000180140001401400000002036
:101F900000080140080000200C00002004F0DBFFD6
:101FA00046EAC0061021FA4804F0D5FF46EA0016BA
:101FB0000821F74804F0CFFF46EA40160421F44810
:101FC00004F0C9FF46EA80160221F14804F0C3FF7D
:101FD00046EAC010C4B2EF480078002868D1012159
:101FE000ED4804F0B8FF002862D14FF47A70FEF794
:101FF00087F84FF40061E94804F0C7FF4FF47A70A6
:10200000FEF77EF80A2004F090FC0121E24804F07B
:10201000A2FF00283FD12246E1A107F005FCDD48E0
:102020000278E4A1002007F0FFFB0120D9490870E5
:10203000AFF6C0100068009060208DF804008DF8A5
:10204000054001208DF806000121D34804F083FFEC
:10205000012803D111208DF8070002E000208DF83F
:102060000700042101A8FEF7DAF805468DF80850AC
:10207000AFF6F8100188ADF8091080788DF80B00E4
:1020800000208DF80C000C216846FEF790F80C211A
:102090006846FEF767F84FF47A70FEF731F84FF4B0
:1020A0000061BE4804F073FF4FF47A70FEF728F821
:1020B000B8480078002869D00121B74804F04BFFE8
:1020C000012863D14FF47A70FEF71AF84FF40061DB
:1020D000B24804F05AFF4FF47A70FEF711F80A2064
:1020E00004F023FC0121AC4804F035FF012840D165
:1020F0002246ABA1002007F097FBA6480278B3A1C7
:10210000002007F091FB0020A2490870AFF69C2048
:102110000068009060208DF804008DF805400120D3
:102120008DF8060001219C4804F015FF012803D119
:1021300011208DF8070002E000208DF8070004212F
:1021400001A8FEF76CF805468DF80850AFF6D420CC
:102150000188ADF8091080788DF80B0000208DF80B
:102160000C000C216846FEF722F80C216846FDF7AA
:10217000F9FF4FF47A70FDF7C3FF4FF40061874811
:1021800004F005FF4FF47A70FDF7BAFF9448007829
:10219000002868D10421804804F0DDFE002862D1C7
:1021A0004FF47A70FDF7ACFF4FF400617B4804F008
:1021B000ECFE4FF47A70FDF7A3FF0A2004F0B5FBA4
:1021C0000421754804F0C7FE00283FD1224674A1BF
:1021D00007F02AFB8248027882A1002007F024FB46
:1021E00001207F490870AFF67430006800906020CD
:1021F0008DF804008DF8054002208DF806000421BA
:10220000654804F0A8FE012803D111208DF80700CD
:1022100002E000208DF80700042101A8FDF7FFFF70
:1022200005468DF80850AFF6AC300188ADF80910BE
:1022300080788DF80B0000208DF80C000C2168468A
:10224000FDF7B5FF0C216846FDF78CFF4FF47A705F
:10225000FDF756FF4FF40061504804F098FE4FF42C
:102260007A70FDF74DFF5E480078002869D00421A0
:10227000494804F070FE012863D14FF47A70FDF7ED
:102280003FFF4FF40061454804F07FFE4FF47A7041
:10229000FDF736FF0A2004F048FB04213E4804F015
:1022A0005AFE012840D122463DA1002007F0BCFA89
:1022B0004B48027851A1002007F0B6FA00204849A7
:1022C0000870AFF650400068009060208DF8040060
:1022D0008DF8054002208DF8060004212E4804F0F8
:1022E0003AFE012803D111208DF8070002E00020FA
:1022F0008DF80700042101A8FDF791FF05468DF830
:102300000850AFF688400188ADF8091080788DF844
:102310000B0000208DF80C000C216846FDF747FFEC
:102320000C216846FDF71EFF4FF47A70FDF7E8FEBA
:102330004FF40061194804F02AFE4FF47A70FDF75B
:10234000DFFE3348007800287ED10121134804F0D5
:1023500002FE002878D14FF47A70FDF7D1FE4FF4D9
:1023600000610E4804F011FE4FF47A70FDF7C8FECC
:102370000A2004F0DAFA0121084804F0ECFD0028F4
:102380007ED1224606A107F04FFA2148027841E0AB
:102390000014014019000020001001400008014015
:1023A000626F6172645F61646472203D2025303227
:1023B000780A0000636C6F73652D6B6579315F6619
:1023C0006C61673D2025640A000000006F70656E37
:1023D0002D6B6579315F666C61673D2025640A006D
:1023E0001A000020636C6F73652D6B6579325F6630
:1023F0006C61673D2025640A000000006F70656E07
:102400002D6B6579325F666C61673D2025640A003B
:102410001B000020FAA1002007F006FA0120FE4967
:102420000870AFF6B0500068009060208DF804008E
:102430008DF8054003208DF806000121F74804F0CF
:102440008AFD012805D100E02FE011208DF807005A
:1024500002E000208DF80700042101A8FDF7DFFE4F
:1024600005468DF80850AFF6EC500188ADF809101C
:1024700080788DF80B0000208DF80C000C2100E016
:1024800006E06846FDF793FE0C216846FDF76AFEFC
:102490004FF47A70FDF734FE4FF40061DF4804F02A
:1024A00076FD4FF47A70FDF72BFEDB4800780028AC
:1024B0006AD00121D94804F04EFD012864D14FF4BF
:1024C0007A70FDF71DFE4FF40061D44804F05DFD05
:1024D0004FF47A70FDF714FE0A2004F026FA012169
:1024E000CE4804F038FD012841D12246AFF2501108
:1024F000002007F099F9C8480278C9A1002007F028
:1025000093F90020C4490870AFF698600068009005
:1025100060208DF804008DF8054003208DF806003A
:102520000121BE4804F017FD012803D111208DF8C8
:10253000070002E000208DF80700042101A8FDF744
:102540006EFE05468DF80850AFF6D0600188ADF8F4
:10255000091080788DF80B0000208DF80C000C21FC
:102560006846FDF724FE0C216846FDF7FBFD4FF49D
:102570007A70FDF7C5FD4FF40061A84804F007FD2F
:102580004FF47A70FDF7BCFDAA480078002869D1A5
:102590000421A24804F0DFFC002863D14FF47A70D4
:1025A000FDF7AEFD4FF400619C4804F0EEFC4FF4E3
:1025B0007A70FDF7A5FD0A2004F0B7F904219748C9
:1025C00004F0C9FC002840D12246AFF22C2107F0CC
:1025D0002BF99848027898A1002007F025F90120EE
:1025E00094490870AFF674700068009060208DF810
:1025F00004008DF8054004208DF80600042187486A
:1026000004F0A9FC012803D111208DF8070002E095
:1026100000208DF80700042101A8FDF700FE054603
:102620008DF80850AFF6AC700188ADF809108078CD
:102630008DF80B0000208DF80C000C216846FDF78A
:10264000B6FD0C216846FDF78DFD4FF47A70FDF75D
:1026500057FD4FF40061714804F099FC4FF47A7013
:10266000FDF74EFD73480078002869D004216B48BF
:1026700004F071FC012863D14FF47A70FDF740FD3E
:102680004FF40061654804F080FC4FF47A70FDF768
:1026900037FD0A2004F049F90421604804F05BFC8E
:1026A000012840D12246AFF20831002007F0BCF8E3
:1026B0006048027866A1002007F0B6F800205D4966
:1026C000087068480068009060208DF804008DF85C
:1026D000054004208DF806000421504804F03BFC1E
:1026E000012803D111208DF8070002E000208DF8A9
:1026F0000700042101A8FDF792FD05468DF808505A
:10270000584808300188ADF8091080788DF80B0022
:1027100000208DF80C000C216846FDF748FD0C21C7
:102720006846FDF71FFD4FF47A70FDF7E9FC4FF4A2
:1027300000613A4804F02BFC4FF47A70FDF7E0FC9E
:102740004948007800285AD11021344804F003FC8D
:10275000002854D14FF47A70FDF7D2FC4FF4006199
:102760002E4804F012FC4FF47A70FDF7C9FC0A20E1
:1027700004F0DBF81021294804F0EDFBF0BB224601
:10278000AFF2E431002007F04FF83748027837A164
:10279000002007F049F801203349087031480068EB
:1027A000009060208DF804008DF8054005208DF81C
:1027B00006001021194804F0CEFB012803D1112096
:1027C0008DF8070002E000208DF80700042101A821
:1027D000FDF725FD05468DF8085022480830018890
:1027E000ADF8091080788DF80B0000208DF80C00F2
:1027F0000C216846FDF7DBFC0C2143E045E051E08D
:10280000636C6F73652D6B6579335F666C61673DD3
:102810002025640A000000001B0000200008014081
:102820006F70656E2D6B6579335F666C61673D20F7
:1028300025640A001C000020636C6F73652D6B65B6
:1028400079345F666C61673D2025640A00000000F2
:102850006F70656E2D6B6579345F666C61673D20C6
:1028600025640A00741600081D000020636C6F7355
:10287000652D6B6579355F666C61673D2025640A5F
:10288000000000006846FDF76DFC4FF47A70FDF71C
:1028900037FC4FF40061FE4804F079FB4FF47A7086
:1028A000FDF72EFCFB480078002869D01021F8487D
:1028B00004F051FB012863D14FF47A70FDF720FC3E
:1028C0004FF40061F24804F060FB4FF47A70FDF7BA
:1028D00017FC0A2004F029F81021ED4804F03BFB16
:1028E000012840D12246AFF24851002006F09CFF5B
:1028F000E8480278E8A1002006F096FF0020E549AC
:102900000870EA480068009060208DF804008DF897
:10291000054005208DF806001021DD4804F01BFB62
:10292000012803D111208DF8070002E000208DF866
:102930000700042101A8FDF772FC05468DF8085038
:10294000DA4808300188ADF8091080788DF80B005E
:1029500000208DF80C000C216846FDF728FC0C21A6
:102960006846FDF7FFFB4FF47A70FDF7C9FB4FF4A3
:102970000061C74804F00BFB4FF47A70FDF7C0FB11
:10298000CB48007800286AD14021C14804F0E3FA1E
:10299000002864D14FF47A70FDF7B2FB4FF4006168
:1029A000BB4804F0F2FA4FF47A70FDF7A9FB0A2055
:1029B00003F0BBFF4021B64804F0CDFAF0BB22463D
:1029C000AFF22461002006F02FFFB9480278B9A1C8
:1029D000002006F029FF0120B5490870B3480068BF
:1029E000009060208DF804008DF8054006208DF8D9
:1029F00006004021A64804F0AEFA012803D11120B8
:102A00008DF8070002E000208DF80700042101A8DE
:102A1000FDF705FC05468DF80850A44808300188EC
:102A2000ADF8091080788DF80B0000208DF80C00AF
:102A30000C216846FDF7BBFB0C2100E002E0684674
:102A4000FDF790FB4FF47A70FDF75AFB4FF40061ED
:102A50008F4804F09CFA4FF47A70FDF751FB9448CC
:102A60000078002869D04021894804F074FA0128D0
:102A700063D14FF47A70FDF743FB4FF40061844853
:102A800004F083FA4FF47A70FDF73AFB0A2003F062
:102A90004CFF40217E4804F05EFA012840D12246D6
:102AA000AFF20471002006F0BFFE8148027887A1D2
:102AB000002006F0B9FE00207D4908707B480068C0
:102AC000009060208DF804008DF8054006208DF8F8
:102AD000060040216E4804F03EFA012803D111207F
:102AE0008DF8070002E000208DF80700042101A8FE
:102AF000FDF795FB05468DF808506C4808300188B5
:102B0000ADF8091080788DF80B0000208DF80C00CE
:102B10000C216846FDF74BFB0C216846FDF722FBB4
:102B20004FF47A70FDF7ECFA4FF40061584804F066
:102B30002EFA4FF47A70FDF7E3FA6948007800281E
:102B40006AD11021674804F006FA002864D14FF4D6
:102B50007A70FDF7D5FA4FF400614D4804F015FA8C
:102B60004FF47A70FDF7CCFA0A2003F0DEFE102154
:102B70005C4804F0F0F9E8BB2246AFF2DC710020BB
:102B800006F052FE5648027857A1002006F04CFE8F
:102B900001205349087045480068009060208DF876
:102BA00004008DF8054007208DF8060010214D48DF
:102BB00004F0D1F9012803D111208DF8070002E0BB
:102BC00000208DF80700042101A8FDF728FB054629
:102BD0008DF80850354808300188ADF80910807824
:102BE0008DF80B0000208DF80C000C216846FDF7D5
:102BF000DEFA00E003E00C216846FDF7B3FA4FF47B
:102C00007A70FDF77DFA4FF40061214804F0BFF9B6
:102C10004FF47A70FDF774FA31480078002879D0C3
:102C20001021304804F097F9012873D14FF47A70DD
:102C3000FDF766FA4FF40061154804F0A6F94FF469
:102C40007A70FDF75DFA0A2003F06FFE1021254827
:102C500004F081F901287DD12246AFF6BC010020A5
:102C600006F0E2FD1E48027825A1002006F0DCFDFA
:102C700000201B4908700D480068009060208DF806
:102C800004008DF8054007208DF80600102142E071
:102C9000000801401D0000206F70656E2D6B657986
:102CA000355F666C61673D2025640A007416000874
:102CB0001E000020636C6F73652D6B6579365F664F
:102CC0006C61673D2025640A000000006F70656E2E
:102CD0002D6B6579365F666C61673D2025640A005F
:102CE0001F00002000100140636C6F73652D6B6541
:102CF00079375F666C61673D2025640A000000003B
:102D00006F70656E2D6B6579375F666C61673D200E
:102D100025640A0033E0FE4804F01DF9012803D1C0
:102D200011208DF8070002E000208DF80700042133
:102D300001A8FDF774FA05468DF80850F54801889A
:102D4000ADF8091080788DF80B0000208DF80C008C
:102D50000C2100E006E06846FDF729FA0C216846E0
:102D6000FDF700FA4FF47A70FDF7CAF94FF40061ED
:102D7000E94804F00CF94FF47A70FDF7C1F9E7481F
:102D8000007800286AD10121E54804F0E4F8002821
:102D900064D14FF47A70FDF7B3F94FF40061DE4867
:102DA00004F0F3F84FF47A70FDF7AAF90A2003F063
:102DB000BCFD0121DA4804F0CEF8E8BB2246AFF6AC
:102DC0002021002006F030FDD4480278D5A1002053
:102DD00006F02AFD0120D1490870CE480838006865
:102DE000009060208DF804008DF8054008208DF8D3
:102DF00006000121CA4804F0AEF8012803D11120D1
:102E00008DF8070002E000208DF80700042101A8DA
:102E1000FDF705FA05468DF80850BE480188ADF863
:102E2000091080788DF80B0000208DF80C000C2123
:102E30006846FDF7BCF900E003E00C216846FDF7A9
:102E400091F94FF47A70FDF75BF94FF40061B248E5
:102E500004F09DF84FF47A70FDF752F9AF4800780E
:102E6000002869D00121AE4804F075F8012863D12B
:102E70004FF47A70FDF744F94FF40061A64804F06E
:102E800084F84FF47A70FDF73BF90A2003F04DFD0A
:102E90000121A34804F05FF8012840D12246AFF693
:102EA0000031002006F0C0FC9C480278A3A100205D
:102EB00006F0BAFC00209949087096480838006866
:102EC000009060208DF804008DF8054008208DF8F2
:102ED00006000121924804F03EF8012803D1112098
:102EE0008DF8070002E000208DF80700042101A8FA
:102EF000FDF795F905468DF8085086480188ADF82C
:102F0000091080788DF80B0000208DF80C000C2142
:102F10006846FDF74CF90C216846FDF723F94FF49C
:102F20007A70FDF7EDF84FF400617B4804F02FF85C
:102F30004FF47A70FDF7E4F885480078F0BB08217B
:102F4000844804F008F8C8BB4FF47A70FDF7D8F84D
:102F50004FF40061704804F018F84FF47A70FDF7F0
:102F6000CFF80A2003F0E1FC08217A4803F0F3FFD0
:102F7000F0BB2246AFF6D831002006F055FC74486D
:102F8000027875A1002006F04FFC012070490870FE
:102F9000604808380068009060208DF804008DF8C3
:102FA000054009208DF8060008216A4803F0D3FF88
:102FB000012804D111208DF8070003E02AE0002049
:102FC0008DF80700042101A8FDF729F905468DF8C1
:102FD000085050480188ADF8091080788DF80B0032
:102FE00000208DF80C000C216846FDF7E0F800E0A9
:102FF00003E00C216846FDF7B5F84FF47A70FDF751
:103000007FF84FF40061444803F0C1FF4FF47A7039
:10301000FDF776F84E480078F0B308214D4803F0EC
:103020009AFF012865D14FF47A70FDF769F84FF4E3
:103030000061394803F0A9FF4FF47A70FDF760F89A
:103040000A2003F072FC0821424803F084FF0128A3
:1030500042D12246AFF6B841002006F0E5FB3C48DD
:10306000027843A1002006F0DFFB002038490870F9
:10307000284808380068009060208DF804008DF81A
:10308000054009208DF806000821324803F063FF4F
:10309000012805D1112000E02BE08DF8070002E0A7
:1030A00000208DF80700042101A8FDF7B8F80546B7
:1030B0008DF8085017480188ADF8091080788DF810
:1030C0000B0000208DF80C000C216846FDF76FF80E
:1030D0000C216846FDF746F84FF47A70FDF710F8BA
:1030E0004FF400610C4803F052FF4FF47A70FDF783
:1030F00007F82448007848B91021164803F02BFF40
:1031000020B94FF47A70FCF7FBFF3DE09DE0000032
:10311000001001407C16000800080140200000203B
:10312000000C0140636C6F73652D6B6579385F66C9
:103130006C61673D2025640A000000006F70656EB9
:103140002D6B6579385F666C61673D2025640A00E8
:103150002100002000180140636C6F73652D6B65C2
:1031600079395F666C61673D2025640A00000000C4
:103170006F70656E2D6B6579395F666C61673D2098
:1031800025640A00220000204FF40061F74803F094
:10319000FCFE4FF47A70FCF7B3FF0A2003F0C5FB86
:1031A0001021F34803F0D7FEF0BB2246AFF61061C2
:1031B000002006F039FBEF480278EFA1002006F06E
:1031C00033FB0120EB490870F14800680090602053
:1031D0008DF804008DF805400A208DF806001021B6
:1031E000E34803F0B8FE012803D111208DF8070051
:1031F00002E000208DF80700042101A8FDF70FF878
:1032000005468DF80850E24808300188ADF80910ED
:1032100080788DF80B0000208DF80C000C2168469A
:10322000FCF7C5FF0C2100E002E06846FCF79AFFBE
:103230004FF47A70FCF764FF4FF40061CB4803F061
:10324000A6FE4FF47A70FCF75BFFCA480078E8B33B
:103250001021C74803F07FFE012865D14FF47A7032
:10326000FCF74EFF4FF40061C04803F08EFE4FF4B0
:103270007A70FCF745FF0A2003F057FB1021BC4889
:1032800003F069FE012842D12246AFF6EC6100202E
:1032900006F0CAFAB7480278BEA1002006F0C4FAC8
:1032A0000020B4490870BA480068009060208DF88A
:1032B00004008DF805400A208DF806001021AC4866
:1032C00003F049FE012805D1112000E02CE08DF823
:1032D000070002E000208DF80700042101A8FCF798
:1032E0009EFF05468DF80850A94808300188ADF8C2
:1032F000091080788DF80B0000208DF80C000C214F
:103300006846FCF754FF0C216846FCF72BFF4FF48E
:103310007A70FCF7F5FE4FF40061944803F037FE35
:103320004FF47A70FCF7ECFEA0480078E8BB8021EF
:103330008F4803F010FEC0BB4FF47A70FCF7E0FE3C
:103340004FF40061894803F020FE4FF47A70FCF7D7
:10335000D7FE0A2003F0E9FA8021854803F0FBFD3F
:10336000F0BB2246AFF6C871002006F05DFA8F4828
:1033700002788FA1002006F057FA01208B490870CF
:1033800083480068009060208DF804008DF80540A7
:103390000B208DF806008021754803F0DCFD012824
:1033A00004D111208DF8070003E02BE000208DF8F8
:1033B0000700042101A8FCF732FF05468DF80850EC
:1033C000734808300188ADF8091080788DF80B003B
:1033D00000208DF80C000C216846FCF7E8FE00E0A8
:1033E00003E00C216846FCF7BDFE4FF47A70FCF751
:1033F00087FE4FF400615D4803F0C9FD4FF47A7019
:10340000FCF77EFE69480078F0B38021584803F04D
:10341000A2FD012863D14FF47A70FCF771FE4FF4DE
:103420000061524803F0B1FD4FF47A70FCF768FE7A
:103430000A2003F07AFA80214D4803F08CFD012820
:1034400040D122466049002006F0EEF95748027844
:103450005EA1002006F0E8F90020544908704C48AD
:103460000068009060208DF804008DF805400B2066
:103470008DF8060080213E4803F06DFD012804D13F
:1034800011208DF8070003E029E000208DF80700E7
:10349000042101A8FCF7C3FE05468DF808503C48FE
:1034A00008300188ADF8091080788DF80B000020F5
:1034B0008DF80C000C216846FCF779FE0C2168465B
:1034C000FCF750FE4FF47A70FCF71AFE4FF40061DF
:1034D000264803F05CFD4FF47A70FCF711FE41487A
:1034E0000078E8BB4FF40071214803F034FDB8BB0D
:1034F0004FF47A70FCF704FE4FF400611B4803F0B0
:1035000044FD4FF47A70FCF7FBFD0A2003F00DFA3E
:103510004FF40071164803F01EFD28BB22462A49CD
:10352000002006F081F92F4802782FA1002006F034
:103530007BF901202B490870154800680090602035
:103540008DF804008DF805400C208DF806004FF42E
:103550000071074803F0FFFC012851D1112000E061
:1035600077E08DF807004EE066E0000000080140BB
:103570000018014022000020636C6F73652D6B659D
:103580007931305F666C61673D2025640A00000078
:10359000741600086F70656E2D6B657931305F664B
:1035A0006C61673D2025640A0000000023000020B4
:1035B000636C6F73652D6B657931315F666C616724
:1035C0003D2025640A000000A02300086F70656E8E
:1035D0002D6B657931315F666C61673D2025640A2A
:1035E0000000000024000020636C6F73652D6B6584
:1035F0007931325F666C61673D2025640A00000006
:1036000000208DF80700042101A8FCF708FE0546FC
:103610008DF80850FE480188ADF8091080788DF8C3
:103620000B0000208DF80C000C216846FCF7BFFD54
:103630000C216846FCF796FD4FF47A70FCF760FDAC
:103640004FF40061F34803F0A2FC4FF47A70FCF7EA
:1036500057FDF1480078E8B34FF40071EF4803F0EC
:103660007AFC012866D14FF47A70FCF749FD4FF4DB
:103670000061E84803F089FC4FF47A70FCF740FDE4
:103680000A2003F052F94FF40071E44803F063FCA0
:10369000012842D12246E249002006F0C5F8DE4862
:1036A0000278E0A1002006F0BFF80020DA49087097
:1036B000D74808380068009060208DF804008DF825
:1036C00005400C208DF806004FF40071D34803F03C
:1036D00042FC00E02EE0012803D111208DF8070004
:1036E00002E000208DF80700042101A8FCF797FDF7
:1036F00005468DF80850C6480188ADF80910807855
:103700008DF80B0000208DF80C000C216846FCF7AA
:103710004EFD0C216846FCF725FD4FF47A70FCF74E
:10372000EFFC4FF40061BB4803F031FC4FF47A70BA
:10373000FCF7E6FCC1480078F0BB4FF40061B748E5
:1037400003F009FCC0BB4FF47A70FCF7D9FC4FF4CE
:103750000061B04803F019FC4FF47A70FCF7D0FC1C
:103760000A2003F0E2F84FF40061AC4803F0F3FBE9
:10377000E8BB2246AA49002006F056F8AF48027876
:10378000AFA1002006F050F80120AC490870A04815
:1037900008380068009060208DF804008DF805401E
:1037A0000D208DF806004FF400619C4803F0D3FB18
:1037B000012805D1112000E02DE08DF8070002E07E
:1037C00000208DF80700042101A8FCF728FD05461C
:1037D0008DF808508E480188ADF8091080788DF872
:1037E0000B0000208DF80C000C21684600E005E07D
:1037F000FCF7DDFC0C216846FCF7B4FC4FF47A7052
:10380000FCF77EFC4FF40061824803F0C0FB4FF4EC
:103810007A70FCF775FC89480078E8B34FF40061D2
:103820007E4803F098FB012866D14FF47A70FCF7CC
:1038300067FC4FF40061774803F0A7FB4FF47A7000
:10384000FCF75EFC0A2003F070F84FF40061734847
:1038500003F081FB012842D122467149002005F086
:10386000E3FF764802787CA1002005F0DDFF002010
:1038700072490870664808380068009060208DF82A
:1038800004008DF805400D208DF806004FF400610E
:10389000624803F060FB00E02EE0012803D1112014
:1038A0008DF8070002E000208DF80700042101A830
:1038B000FCF7B5FC05468DF8085055480188ADF871
:1038C000091080788DF80B0000208DF80C000C2179
:1038D0006846FCF76CFC0C216846FCF743FC4FF48F
:1038E0007A70FCF70DFC4FF400614A4803F04FFB7F
:1038F0004FF47A70FCF704FC5D480078F0BB4FF49D
:103900000051464803F027FBC0BB4FF47A70FCF728
:10391000F7FB4FF400613F4803F037FB4FF47A7038
:10392000FCF7EEFB0A2003F000F84FF400513B488F
:1039300003F011FBE8BB22463949002005F074FF73
:103940004B4802784BA1002005F06EFF012048494A
:1039500008702F4808380068009060208DF8040037
:103960008DF805400E208DF806004FF400512B48CD
:1039700003F0F1FA012805D1112000E02DE08DF8C7
:10398000070002E000208DF80700042101A8FCF7E1
:1039900046FC05468DF808501D480188ADF8091011
:1039A00080788DF80B0000208DF80C000C21684603
:1039B00000E005E0FCF7FBFB0C216846FCF7D2FBBE
:1039C0004FF47A70FCF79CFB4FF40061114803F050
:1039D000DEFA4FF47A70FCF793FB25480078A8B123
:1039E0004FF400510D4803F0B6FA01280ED14FF400
:1039F0007A70FCF785FB4FF40061064803F0C5FAC6
:103A00004FF47A70FCF77CFB0A203FE095E0000061
:103A10007C16000800080140240000200018014026
:103A2000A02300086F70656E2D6B657931325F667B
:103A30006C61673D2025640A00000000250000201D
:103A4000636C6F73652D6B657931335F666C61678D
:103A50003D2025640A0000006F70656E2D6B65794E
:103A600031335F666C61673D2025640A0000000009
:103A700026000020636C6F73652D6B657931345FB0
:103A8000666C61673D2025640A00000002F04DFF6E
:103A90004FF40051FE4803F05EFA012840D122465F
:103AA000FC49002005F0C0FEFB480278FBA1002085
:103AB00005F0BAFE0020F8490870FE480068009042
:103AC00060208DF804008DF805400E208DF806006A
:103AD0004FF40051EE4803F03EFA012803D11120C3
:103AE0008DF8070002E000208DF80700042101A8EE
:103AF000FCF795FB05468DF80850EE480830018824
:103B0000ADF8091080788DF80B0000208DF80C00BE
:103B10000C216846FCF74BFB0C216846FCF722FBA6
:103B20004FF47A70FCF7ECFA4FF40061E24803F0CE
:103B30002EFA4FF47A70FCF7E3FAE0480078E8BB1D
:103B40004FF40041D24803F006FAB8BB4FF47A7044
:103B5000FCF7D6FA4FF40061D74803F016FA4FF499
:103B60007A70FCF7CDFA0A2002F0DFFE4FF4004134
:103B7000C74803F0F0F9E8BB2246C649002005F02B
:103B800053FECE480278CEA1002005F04DFE012064
:103B9000CA490870C7480068009060208DF804008A
:103BA0008DF805400F208DF806004FF40041B8480D
:103BB00003F0D1F9012805D1112000E02EE08DF8A5
:103BC000070002E000208DF80700042101A8FCF79F
:103BD00026FB05468DF80850B64808300188ADF838
:103BE000091080788DF80B0000208DF80C000C2156
:103BF000684600E005E0FCF7DAFA0C216846FCF7BD
:103C0000B1FA4FF47A70FCF77BFA4FF40061AA48DE
:103C100003F0BDF94FF47A70FCF772FAA748007808
:103C2000F0B34FF400419A4803F095F9012866D1AA
:103C30004FF47A70FCF764FA4FF400619E4803F089
:103C4000A4F94FF47A70FCF75BFA0A2002F06DFEDB
:103C50004FF400418E4803F07EF9012842D12246FC
:103C60008C49002005F0E0FD944802789AA10020DC
:103C700005F0DAFD0020914908708E480068009038
:103C800060208DF804008DF805400F208DF80600A7
:103C90004FF400417E4803F05EF9012805D100E0B1
:103CA0002DE011208DF8070002E000208DF80700BC
:103CB000042101A8FCF7B3FA05468DF808507D48A9
:103CC00008300188ADF8091080788DF80B000020CD
:103CD0008DF80C000C216846FCF769FA0C21684647
:103CE000FCF740FA4FF47A70FCF70AFA4FF40061DF
:103CF000714803F04CF94FF47A70FCF701FA7C48F4
:103D00000078E0BB4FF400617A4803F024F9B0BBBF
:103D10004FF47A70FCF7F4F94FF40061664803F051
:103D200034F94FF47A70FCF7EBF90A2002F0FDFD4C
:103D30004FF400616F4803F00EF9E0BB224655498D
:103D4000002005F071FD6A4802786BA1002005F0A3
:103D50006BFD01206649087056480068009060209D
:103D60008DF804008DF8054010208DF80600C10183
:103D7000604803F0F0F8012805D1112000E02EE0A2
:103D80008DF8070002E000208DF80700042101A84B
:103D9000FCF745FA05468DF808504648083001887A
:103DA000ADF8091080788DF80B0000208DF80C001C
:103DB0000C21684600E005E0FCF7F9F90C216846A3
:103DC000FCF7D0F94FF47A70FCF79AF94FF40061E0
:103DD000394803F0DCF84FF47A70FCF791F9444865
:103DE0000078E8B34FF40061424803F0B4F80128CA
:103DF00036D14FF47A70FCF783F94FF400612E4806
:103E000003F0C3F84FF47A70FCF77AF90A2002F055
:103E10008CFD4FF40061374803F09DF8012835D13F
:103E200022461C49002005F0FFFC3148027838A1E9
:103E3000002005F0F9FC00202D4908701D4800689D
:103E4000009060208DF804008DF8054010208DF85A
:103E50000600C101274803F07EF8012805D100E0E3
:103E60007CE011208DF8070002E000208DF80700AB
:103E7000042101A8FCF7D3F905468DF808500D4838
:103E800008300188ADF8091080784DE059E0000055
:103E900000180140A0230008260000206F70656E06
:103EA0002D6B657931345F666C61673D2025640A4E
:103EB00000000000741600080008014027000020E0
:103EC000636C6F73652D6B657931355F666C616707
:103ED0003D2025640A0000006F70656E2D6B6579CA
:103EE00031355F666C61673D2025640A0000000083
:103EF00028000020000C0140636C6F73652D6B651A
:103F00007931365F666C61673D2025640A000000E8
:103F10006F70656E2D6B657931365F666C61673DDC
:103F20002025640A000000008DF80B0000208DF8A9
:103F30000C000C216846FCF73AF90C216846FCF7A6
:103F400011F94FF47A70FCF7DBF84FF40061FA488E
:103F500003F01DF84FF47A70FCF7D2F8F7480078B8
:103F6000E8BB4FF40051F64802F0F5FFB8BB4FF440
:103F70007A70FCF7C5F84FF40061EF4803F005F8DC
:103F80004FF47A70FCF7BCF80A2002F0CEFC4FF434
:103F90000051EB4802F0DFFFE8BB2246E949002070
:103FA00005F042FCE5480278E7A1002005F03CFC62
:103FB0000120E2490870EA480068009060208DF80E
:103FC00004008DF8054011208DF806004FF40051D3
:103FD000DB4802F0C0FF012805D1112000E02EE0EF
:103FE0008DF8070002E000208DF80700042101A8E9
:103FF000FCF715F905468DF80850D94808300188B6
:10400000ADF8091080788DF80B0000208DF80C00B9
:104010000C21684600E005E0FCF7C9F80C21684671
:10402000FCF7A0F84FF47A70FCF76AF84FF40061DF
:10403000C14802F0ACFF4FF47A70FCF761F8BF485A
:104040000078E8B34FF40051BD4802F084FF012826
:1040500066D14FF47A70FCF753F84FF40061B6481C
:1040600002F093FF4FF47A70FCF74AF80A2002F04E
:104070005CFC4FF40051B24802F06DFF012842D1C0
:104080002246B049002005F0CFFBAC480278B5A12C
:10409000002005F0C9FB0020A8490870B04800685E
:1040A000009060208DF804008DF8054011208DF8F7
:1040B00006004FF40051A24802F04DFF012800E035
:1040C0002EE003D111208DF8070002E000208DF8CA
:1040D0000700042101A8FCF7A2F805468DF8085056
:1040E0009F4808300188ADF8091080788DF80B00E2
:1040F00000208DF80C000C216846FCF758F80C21C4
:104100006846FCF72FF84FF47A70FBF7F9FF4FF48D
:104110000061894802F03BFF4FF47A70FBF7F0FF33
:1041200096480078E8BB4FF40041854802F013FF41
:10413000B8BB4FF47A70FBF7E3FF4FF400617E48A1
:1041400002F023FF4FF47A70FBF7DAFF0A2002F047
:10415000ECFB4FF400417A4802F0FDFEE8BB22463A
:104160007849002005F060FB8448027884A1002093
:1041700005F05AFB012081490870794800680090D9
:1041800060208DF804008DF8054012208DF806009F
:104190004FF400416A4802F0DEFE012805D11120EB
:1041A00000E02EE08DF8070002E000208DF8070007
:1041B000042101A8FCF733F805468DF8085068483B
:1041C00008300188ADF8091080788DF80B000020C8
:1041D0008DF80C000C21684600E005E0FBF7E7FFD6
:1041E0000C216846FBF7BEFF4FF47A70FBF788FF9F
:1041F0004FF40061504802F0CAFE4FF47A70FBF7AA
:104200007FFF5E480078E8B34FF400414C4802F06D
:10421000A2FE012866D14FF47A70FBF771FF4FF4CC
:104220000061454802F0B1FE4FF47A70FBF768FF79
:104230000A2002F07AFB4FF40041414802F08BFE65
:10424000012842D122463F49002005F0EDFA4B48B3
:10425000027851A1002005F0E7FA002047490870D4
:104260003F480068009060208DF804008DF80540FC
:1042700012208DF806004FF40041314802F06BFE29
:10428000012800E02EE003D111208DF8070002E0A4
:1042900000208DF80700042101A8FBF7C0FF0546A8
:1042A0008DF808502E4808300188ADF80910807844
:1042B0008DF80B0000208DF80C000C216846FBF7F0
:1042C00076FF0C216846FBF74DFF4FF47A70FBF741
:1042D00017FF4FF40061184802F059FE4FF47A704E
:1042E000FBF70EFF3248007818BB4FF400713148DD
:1042F00002F031FEE8B94FF47A70FBF701FF4FF49A
:1043000000610D4802F041FE4FF47A70FBF7F8FEB1
:104310000A2002F00AFB4FF40071264802F01BFE4F
:1043200040B922460749002005F07EFA204802786D
:1043300042E088E07AE00000000801402900002007
:10434000000C0140A0230008636C6F73652D6B6542
:104350007931375F666C61673D2025640A00000093
:10436000741600086F70656E2D6B657931375F6666
:104370006C61673D2025640A000000002A000020CF
:10438000636C6F73652D6B657931385F666C61673F
:104390003D2025640A0000006F70656E2D6B657905
:1043A00031385F666C61673D2025640A00000000BB
:1043B0002B00002000140140F9A1002005F034FA80
:1043C0000120FD490870FD480068009060208DF8CC
:1043D00004008DF8054013208DF806004FF400719D
:1043E000F74802F0B8FD012803D111208DF807002D
:1043F00002E000208DF80700042101A8FBF70FFF61
:1044000005468DF80850ED4808300188ADF80910D0
:1044100080788DF80B0000208DF80C000C21684688
:10442000FBF7C5FE0C216846FBF79CFE4FF47A7043
:10443000FBF766FE4FF40061E24802F0A8FD4FF47E
:104440007A70FBF75DFEDC480078E8B34FF400714A
:10445000DB4802F080FD012866D14FF47A70FBF74B
:104460004FFE4FF40061D74802F08FFD4FF47A7091
:10447000FBF746FE0A2002F058FA4FF40071D048CC
:1044800002F069FD012842D12246CF49002005F003
:10449000CBF9C9480278CDA1002005F0C5F900206C
:1044A000C5490870C5480068009060208DF8040078
:1044B0008DF8054013208DF806004FF40071C048B8
:1044C00002F049FD012800E02EE003D111208DF813
:1044D000070002E000208DF80700042101A8FBF787
:1044E0009EFE05468DF80850B44808300188ADF8A6
:1044F000091080788DF80B0000208DF80C000C213D
:104500006846FBF754FE0C216846FBF72BFE4FF480
:104510007A70FBF7F5FD4FF40061AA4802F037FD11
:104520004FF47A70FBF7ECFDAE480078E8BB4FF42F
:104530000061A34802F00FFDB8BB4FF47A70FBF79F
:10454000DFFD4FF400619F4802F01FFD4FF47A70C9
:10455000FBF7D6FD0A2002F0E8F94FF40061984815
:1045600002F0F9FCE8BB22469749002005F05CF90F
:104570009C4802789CA1002005F056F90120994939
:1045800008708E480068009060208DF804008DF857
:10459000054014208DF806004FF40061884802F0B1
:1045A000DAFC012805D1112000E02EE08DF807008B
:1045B00002E000208DF80700042101A8FBF72FFE80
:1045C00005468DF808507D4808300188ADF809107F
:1045D00080788DF80B0000208DF80C000C216846C7
:1045E00000E005E0FBF7E3FD0C216846FBF7BAFDB0
:1045F0004FF47A70FBF784FD4FF40061714802F0CC
:10460000C6FC4FF47A70FBF77BFD76480078E8B380
:104610004FF400616A4802F09EFC012866D14FF415
:104620007A70FBF76DFD4FF40061664802F0ADFC57
:104630004FF47A70FBF764FD0A2002F076F94FF42C
:1046400000615F4802F087FC012842D122465E49A2
:10465000002005F0E9F86348027869A1002005F020
:10466000E3F800205F49087054480068009060201B
:104670008DF804008DF8054014208DF806004FF4E5
:1046800000614F4802F067FC012800E02EE003D1F2
:1046900011208DF8070002E000208DF807000421AA
:1046A00001A8FBF7BCFD05468DF8085043480830CB
:1046B0000188ADF8091080788DF80B0000208DF886
:1046C0000C000C216846FBF772FD0C216846FBF7D5
:1046D00049FD4FF47A70FBF713FD4FF40061394840
:1046E00002F055FC4FF47A70FBF70AFD4A48007857
:1046F000E8BB4FF40051324802F02DFCB8BB4FF438
:104700007A70FBF7FDFC4FF400612E4802F03DFC8F
:104710004FF47A70FBF7F4FC0A2002F006F94FF42C
:104720000051274802F017FCC8BB2246264900204A
:1047300005F07AF83848027838A1002005F074F8BE
:104740000120354908701D480068009060208DF8F0
:1047500004008DF8054015208DF806004FF4005137
:10476000174802F0F8FB012805D1112000E078E09D
:104770008DF8070002E000208DF80700042101A851
:10478000FBF74DFD05468DF808500C4808300188B0
:10479000ADF8091080788DF80B0000204AE053E056
:1047A000636C6F73652D6B657931395F666C61671A
:1047B0003D2025640A0000002B000020741600082C
:1047C0000014014000080140A02300086F70656ECE
:1047D0002D6B657931395F666C61673D2025640A10
:1047E000000000002C000020636C6F73652D6B656A
:1047F0007932305F666C61673D2025640A000000F5
:104800006F70656E2D6B657932305F666C61673DE8
:104810002025640A000000002D000020636C6F73E7
:10482000652D6B657932315F666C61673D2025646B
:104830000A0000008DF80C000C216846FBF7B7FC5D
:104840000C216846FBF78EFC4FF47A70FBF758FC9E
:104850004FF40061F74802F09AFB4FF47A70FBF7CF
:104860004FFCF5480078E8B34FF40051F34802F0EC
:1048700072FB012866D14FF47A70FBF741FC4FF4CC
:104880000061EC4802F081FB4FF47A70FBF738FCD2
:104890000A2002F04AF84FF40051E84802F05BFBAE
:1048A000012842D12246E649002004F0BDFFE2483B
:1048B0000278E4A1002004F0B7FF0020DE49087070
:1048C000E6480068009060208DF804008DF80540EF
:1048D00015208DF806004FF40051D84802F03BFB3C
:1048E000012800E02EE003D111208DF8070002E03E
:1048F00000208DF80700042101A8FBF790FC054675
:104900008DF80850D54808300188ADF80910807836
:104910008DF80B0000208DF80C000C216846FBF789
:1049200046FC0C216846FBF71DFC4FF47A70FBF740
:10493000E7FB4FF40061BF4802F029FB4FF47A70A7
:10494000FBF7DEFBC6480078E8BB4FF40041BB48EC
:1049500002F001FBB8BB4FF47A70FBF7D1FB4FF4C8
:104960000061B44802F011FB4FF47A70FBF7C8FB0A
:104970000A2001F0DAFF4FF40041B04802F0EBFAF0
:10498000E8BB2246AE49002004F04EFFB44802784E
:10499000B4A1002004F048FF0120B1490870AF48DD
:1049A0000068009060208DF804008DF80540162006
:1049B0008DF806004FF40041A04802F0CCFA01281F
:1049C00005D1112000E02EE08DF8070002E0002064
:1049D0008DF80700042101A8FBF721FC05468DF89E
:1049E00008509E4808300188ADF8091080788DF88D
:1049F0000B0000208DF80C000C21684600E005E05B
:104A0000FBF7D5FB0C216846FBF7ACFB4FF47A7043
:104A1000FBF776FB4FF40061864802F0B8FA4FF4DA
:104A20007A70FBF76DFB8E480078E8B34FF40041D5
:104A3000824802F090FA012866D14FF47A70FBF7B1
:104A40005FFB4FF400617B4802F09FFA4FF47A70ED
:104A5000FBF756FB0A2001F068FF4FF4004177484E
:104A600002F079FA012842D122467549002004F06B
:104A7000DBFE7B48027881A1002004F0D5FE0020F7
:104A80007749087075480068009060208DF8040030
:104A90008DF8054016208DF806004FF40041674858
:104AA00002F059FA012800E02EE003D111208DF820
:104AB000070002E000208DF80700042101A8FBF7A1
:104AC000AEFB05468DF80850644808300188ADF803
:104AD000091080788DF80B0000208DF80C000C2157
:104AE0006846FBF764FB0C216846FBF73BFB4FF481
:104AF0007A70FBF705FB4FF400614E4802F047FA6D
:104B00004FF47A70FBF7FCFA62480078E0BB802132
:104B1000614802F020FAB8BB4FF47A70FBF7F0FA64
:104B20004FF40061434802F030FA4FF47A70FBF71B
:104B3000E7FA0A2001F0F9FE8021574802F00BFA4B
:104B4000F0BB22463E49002004F06EFE5148027838
:104B500052A1002004F068FE01204E4908703F4831
:104B60000068009060208DF804008DF80540172043
:104B70008DF806008021484802F0EDF9012804D1A3
:104B800011208DF8070003E02BE000208DF80700CE
:104B9000042101A8FBF743FB05468DF808502F4878
:104BA00008300188ADF8091080788DF80B000020DE
:104BB0008DF80C000C216846FBF7F9FA0C2100E097
:104BC00002E06846FBF7CEFA4FF47A70FBF798FAEA
:104BD0004FF40061174802F0DAF94FF47A70FBF7EE
:104BE0008FFA2C48007818B380212B4802F0B3F9D3
:104BF00001281DD14FF47A70FBF782FA4FF400615F
:104C00000C4802F0C2F94FF47A70FBF779FA0A20E7
:104C100001F08BFE8021204802F09DF901287DD112
:104C200022460749002004F0FFFD1A48027841E0BF
:104C300088E00000000801402D0000200014014021
:104C4000A02300086F70656E2D6B657932315F6649
:104C50006C61673D2025640A00000000741600089E
:104C60002E000020636C6F73652D6B657932325FA7
:104C7000666C61673D2025640A0000006F70656EF8
:104C80002D6B657932325F666C61673D2025640A61
:104C9000000000002F00002000100140636C6F73C3
:104CA000652D6B657932335F666C61673D202564E5
:104CB0000A000000FAA1002004F0B6FD0020FE4921
:104CC0000870FE480068009060208DF804008DF8A0
:104CD000054017208DF806008021F94802F03BF9C5
:104CE000012803D111208DF8070002E000208DF883
:104CF0000700042101A8FBF792FA05468DF8085039
:104D0000EE4808300188ADF8091080788DF80B0066
:104D100000208DF80C000C21684600E005E0FBF750
:104D200046FA0C216846FBF71DFA4FF47A70FBF740
:104D3000E7F94FF40061E34802F029F94FF47A7083
:104D4000FBF7DEF9E0480078E8BB4FF40071DC487F
:104D500002F001F9B8BB4FF47A70FBF7D1F94FF4C8
:104D60000061D84802F011F94FF47A70FBF7C8F9E6
:104D70000A2001F0DAFD4FF40071D14802F0EBF89F
:104D8000E8BB2246D149002004F04EFDCE4802780F
:104D9000CFA1002004F048FD0120CB490870C7488E
:104DA0000068009060208DF804008DF80540182000
:104DB0008DF806004FF40071C14802F0CCF80128CC
:104DC00005D1112000E02EE08DF8070002E0002060
:104DD0008DF80700042101A8FBF721FA05468DF89C
:104DE0000850B64808300188ADF8091080788DF871
:104DF0000B0000208DF80C000C21684600E005E057
:104E0000FBF7D5F90C216846FBF7ACF94FF47A7043
:104E1000FBF776F94FF40061AA4802F0B8F84FF4B6
:104E20007A70FBF76DF9A8480078E8B34FF4007189
:104E3000A34802F090F8012866D14FF47A70FBF78E
:104E40005FF94FF400619F4802F09FF84FF47A70C9
:104E5000FBF756F90A2001F068FD4FF400719848FD
:104E600002F079F8012842D122469849002004F046
:104E7000DBFC954802789CA1002004F0D5FC0020C2
:104E8000914908708D480068009060208DF80400FA
:104E90008DF8054018208DF806004FF40071884801
:104EA00002F059F8012800E02EE003D111208DF81E
:104EB000070002E000208DF80700042101A8FBF79D
:104EC000AEF905468DF808507C4808300188ADF8E9
:104ED000091080788DF80B0000208DF80C000C2153
:104EE0006846FBF764F90C216846FBF73BF94FF481
:104EF0007A70FBF705F94FF40061724802F047F849
:104F00004FF47A70FBF7FCF840B070BD00BF00248E
:104F100001F0CEFC4FF4A06002F0B0FC784801F044
:104F2000F8FD01F069FA01F064FC00F0E0FA41F6E6
:104F30001F4140F6B73000F0D2FC002000F0BEFC6C
:104F4000022001F0EAFA6F49022001F0ACFB41F6C1
:104F50001F41632001F0F4F9002001F0E0F96A49F3
:104F6000002004F061FC8CE168480078012837D10A
:104F70004FF47A70FBF7C4F84FF40061514802F027
:104F800004F84FF47A70FBF7BBF856A1002004F048
:104F90004BFC5F4802785FA1002004F045FC63A150
:104FA000002004F041FC5A4801786448FBF7DAF825
:104FB000FBF7E8FD4FF47A70FBF7A2F84FF40061BD
:104FC000404801F0E4FF4FF47A70FBF799F80D21A7
:104FD0005A4804F056FC00204D4908704B490870AF
:104FE000022001F055FB0546002D57D0012D30D190
:104FF00053480068401C5249086052480078A8B9DC
:1050000041F61F4140F6B73000F069FC012000F086
:1050100055FC02204C49087001204A490870084696
:1050200002784AA1002004F0FFFB0BE00120464972
:1050300008700020434908700846027848A1002003
:1050400004F0F2FB3E4802684AA1002004F0ECFBA9
:1050500024E041F61F4141F2873000F040FC01207E
:1050600000F02CFC38480078012809D148A1002024
:1050700004F0DAFB032034490870012000F01EFC24
:1050800001203049087047480068401C45490860C5
:105090000846026844A1002004F0C6FB641C91E0AD
:1050A0006F70656E2D6B657932335F666C61673D3D
:1050B0002025640A000000002F000020741600085C
:1050C000001001400008014030000020A02300082B
:1050D000636C6F73652D6B657932345F666C6167E5
:1050E0003D2025640A0000006F70656E2D6B6579A8
:1050F00032345F666C61673D2025640A0000000061
:1051000001020008211F0008FCA900089B000020E4
:10511000940000202D6D61696E2D55617274315FB0
:105120005278203D2025640A000000002D2D2D72AC
:1051300063762D64617461732D2D2D00B001002004
:10514000100000201800002031000020316D6F6435
:10515000655F6E6F6D616C203D2025640A00000064
:10516000326D6F64655F6E6F6D616C203D202564EC
:105170000A0000006B65793253686F727450726573
:105180007373436F756E74203D2025640A00000020
:105190002D2D2D6B65795F6D6F6465203D332D2D51
:1051A0002D0A0000140000206B6579324C6F6E6789
:1051B0005072657373436F756E74203D2025640AC9
:1051C000000000006420B4FBF0F100FB114078B94E
:1051D0002C48007801280BD12BA1002004F024FBDF
:1051E0002D48006808B9012000E000202A49086025
:1051F0000A20B4FBF0F100FB114078B92148007897
:1052000002280BD125A1002004F00EFB22480068E3
:1052100008B9012000E000201F4908600A20B4FB03
:10522000F0F100FB114078B91648007803280BD143
:105230001EA1002004F0F8FA1748006808B9012000
:1052400000E00020144908600A20B4FBF0F100FBE4
:10525000114088B91948007801280DD118A1002003
:1052600004F0E2FA0C480838006808B9012000E0B0
:1052700000200949083908600A2001F056FBFCF7B4
:105280005FFE71E6310000202D2D2D7465737431A1
:105290002D2D2D0A00000000948121422D2D2D740A
:1052A000657374322D2D2D0A000000002D2D2D74F4
:1052B000657374332D2D2D0A000000007F0000203F
:1052C0002D2D2D746573743420206C6F636B5F6AB1
:1052D00069616E63655F666C61672D2D2D0A000044
:1052E000704700BFFEE700BFFEE700BFFEE700BF5C
:1052F000FEE7704770477047704700000CB500200C
:10530000019000906C48006840F480306A49086061
:1053100000BF6948006800F4003000900198401C0C
:105320000190009820B94FF6FF7101988842F0D1A2
:105330006148006800F4003010B10120009001E0E5
:10534000002000900098012843D15C48006840F09C
:1053500010005A4908600846006820F00300086001
:105360000846006840F0020008605348406852490F
:1053700048600846406848600846406840F48060DD
:1053800048600846406820F47C1048600846406841
:1053900040F4E81048600846006840F080700860FB
:1053A00000BF4548006800F000700028F9D042486E
:1053B000406820F00300404948600846406840F0DB
:1053C0000200486000BF3C48406800F00C0008281C
:1053D000F9D10CBD10B5FFF791FF10BD10B53648DF
:1053E000006840F0010034490860084640683449CC
:1053F00008403149486008460068324908402E4953
:1054000008600846006820F480200860084640686C
:1054100020F4FE0048604FF41F008860FFF7DAFFB9
:105420004FF000602849086010BD10B50021002031
:105430000022214B5B6803F00C0121B1042906D046
:10544000082928D107E0214B214C236027E01F4B7E
:105450001F4C236023E0184B5B6803F47010164B5D
:105460005B6803F48032022303EB904022B9194BAE
:105470004343174C23600DE00F4B5B6803F400338C
:1054800023B1144B4343124C236003E00F4B4343BF
:105490000F4C236003E00D4B0D4C236000BF00BF99
:1054A000054B5B68C3F303130B4CE15C084B1B68B3
:1054B000CB40074C236010BD00100240002002408A
:1054C0000000FFF8FFFFF6FE08ED00E000127A0092
:1054D0003400002000093D003800002001B502E042
:1054E0000098401E009000980028F9D108BD08B52A
:1054F00001217C2001F059FF10208DF803000320CA
:105500008DF802000121FE4801F063FD2020ADF876
:1055100000006946FB4801F08BFC2021F94801F0AE
:1055200036FD4FF40060ADF800006946F64801F022
:105530007FFC4FF47A70FFF7D1FF4FF40061F2481F
:1055400001F025FD4FF47A70FFF7C8FF0820ADF891
:1055500000006946EB4801F06BFC0821E94801F0C6
:1055600016FD8020ADF800006946E64801F060FCB9
:105570008021E44801F00BFD0220ADF8000010206E
:105580008DF8030003208DF802006946DF4801F022
:105590004FFC0020DE4908600820ADF80000102014
:1055A0008DF8030003208DF802006946D74801F00A
:1055B0003FFC0020D749C1F88C010220ADF8000063
:1055C00010208DF8030003208DF802006946CE48B4
:1055D00001F02EFC0020D04908600820ADF8000042
:1055E00010208DF8030003208DF802006946C6489C
:1055F00001F01EFC0020C949C1F88C012020ADF843
:10560000000010208DF8030003208DF80200694689
:10561000BD4801F00DFC0020BF491031086080201A
:10562000ADF8000010208DF8030003208DF8020073
:105630006946B54801F0FCFB0020B849C1F89C015F
:105640002020ADF8000010208DF8030003208DF815
:1056500002006946AD4801F0EBFB0020AC49103177
:1056600008600220ADF8000010208DF80300032030
:105670008DF802006946A34801F0DAFB0020A84932
:10568000C1F884012020ADF8000010208DF803003F
:1056900003208DF802006946A24801F0C9FB0020F2
:1056A000A14908600420ADF8000010208DF8030027
:1056B00003208DF8020069469A4801F0B9FB0020EA
:1056C0009A49C1F888014FF48070ADF800001020AD
:1056D0008DF8030003208DF802006946914801F01F
:1056E000A7FB002090490C3108604FF48060ADF8B2
:1056F000000010208DF8030003208DF80200694699
:10570000884801F095FB00208849C1F8A8014FF4B2
:105710008050ADF8000010208DF8030003208DF8B4
:10572000020069467F4801F083FB00207E491C315E
:1057300008604FF48040ADF8000010208DF80300A1
:1057400003208DF802006946764801F071FB0020C5
:105750007649C1F8B8014FF48060ADF80000102020
:105760008DF8030003208DF802006946654801F0BA
:105770005FFB00206E4908604FF48050ADF80000D8
:1057800010208DF8030003208DF8020069465D4863
:1057900001F04EFB00206249C1F8B0014FF4804097
:1057A000ADF8000010208DF8030003208DF80200F2
:1057B0006946544801F03CFB00205949C1F8B80142
:1057C0004FF48070ADF8000010208DF80300032026
:1057D0008DF802006946574801F02AFB002056491F
:1057E000C1F8A0014FF48060ADF8000010208DF8E2
:1057F000030003208DF8020069464E4801F018FBB3
:1058000000204D49C1F8A8014FF48050ADF80000C8
:1058100010208DF8030003208DF8020069464548EA
:1058200001F006FB00204449C1F8B0014FF480406C
:10583000ADF8000010208DF8030003208DF8020061
:1058400069463C4801F0F4FA00203B49C1F8B80130
:105850004020ADF8000010208DF8030003208DF8E3
:1058600002006946294801F0E3FA00202949C1F8FD
:1058700098014FF48070ADF8000010208DF80300FF
:1058800003208DF802006946204801F0D1FA00207B
:105890002049C1F8A0014FF48070ADF8000010203D
:1058A0008DF8030003208DF802006946164801F0C8
:1058B000BFFA00201949C1F8A00108BD10B504467F
:1058C00044B100211D4802F00BFF01211B4802F0EA
:1058D00073FC03E00021194802F06EFC10BD7FB597
:1058E00005460C460121042001F06CFDADF808507E
:1058F000ADF804400020ADF80A00ADF806001FE046
:1059000000023000000C014000080140001001407E
:1059100084012242000022428401214200002142EF
:1059200000802142001801409401234200002342DC
:10593000A88121420014014000802242000800405A
:1059400001A9FE4802F0DCF801221146FB4802F0F2
:105950004EFC1E208DF8000000208DF80100012073
:105960008DF802008DF80300684601F08CFF0121DC
:10597000F24802F021FC0121F04802F0F7FE7FBD61
:1059800010B5EFA1002003F04FFF0121EB4802F01A
:10599000DCFE00287AD00121E84802F0E7FEED485D
:1059A0000078032873D1EC480278ECA1002003F0C2
:1059B0003BFFE948007819286ADCE7480078192895
:1059C00067D2DFE800F0660D1A2936455467768302
:1059D000909FAEBDCCDBF3F1F0EFEEEDECEBEA0027
:1059E0000120E4490860E449C1F89C01642000F00A
:1059F0009CFF0020DF4908605EE10120DD4908319D
:105A00000860DD49C1F89C01642000F08EFF002091
:105A1000D849083108604FE10120D8490860D649CB
:105A2000C1F89C01642000F080FF0020D349086089
:105A300042E10120D14908310860CF49C1F89C01F9
:105A4000642000F072FF0020CC490831086033E187
:105A50000120CA4910310860C749C1F89C0164207F
:105A600000F063FF0020C5491031086024E10120E7
:105A7000C24918310860C049C1F89C01642000F097
:105A800054FF0020BD491831086015E1F5E32CE111
:105A90001DE110E10120B74910310860B649C1F895
:105AA0009C01642000F041FF0020B24910310860E1
:105AB00002E10120B2490860AF49C1F89C016420AD
:105AC00000F033FF0020AE490860F5E00120AD4949
:105AD0000860A949C1F89C01642000F026FF00205D
